{
  "_format": "hh-sol-artifact-1",
  "contractName": "EduLaunchBoxFactory",
  "sourceName": "contracts/TokenFactory.sol",
  "abi": [
    {
      "anonymous": false,
      "inputs": [
        {
          "indexed": true,
          "internalType": "address",
          "name": "creator",
          "type": "address"
        },
        {
          "indexed": true,
          "internalType": "address",
          "name": "token",
          "type": "address"
        }
      ],
      "name": "NewLaunchBoxToken",
      "type": "event"
    },
    {
      "inputs": [
        {
          "internalType": "address",
          "name": "",
          "type": "address"
        },
        {
          "internalType": "uint256",
          "name": "",
          "type": "uint256"
        }
      ],
      "name": "deployedLaunchBoxes",
      "outputs": [
        {
          "internalType": "address",
          "name": "",
          "type": "address"
        }
      ],
      "stateMutability": "view",
      "type": "function"
    },
    {
      "inputs": [
        {
          "internalType": "bytes",
          "name": "bytecode",
          "type": "bytes"
        },
        {
          "internalType": "uint256",
          "name": "salt",
          "type": "uint256"
        }
      ],
      "name": "getAddressCreate2",
      "outputs": [
        {
          "internalType": "address",
          "name": "",
          "type": "address"
        }
      ],
      "stateMutability": "view",
      "type": "function"
    },
    {
      "inputs": [
        {
          "internalType": "string",
          "name": "name",
          "type": "string"
        },
        {
          "internalType": "string",
          "name": "symbol",
          "type": "string"
        },
        {
          "internalType": "uint256",
          "name": "supply",
          "type": "uint256"
        }
      ],
      "name": "getBytecode",
      "outputs": [
        {
          "internalType": "bytes",
          "name": "",
          "type": "bytes"
        }
      ],
      "stateMutability": "pure",
      "type": "function"
    },
    {
      "inputs": [
        {
          "internalType": "address",
          "name": "creator",
          "type": "address"
        }
      ],
      "name": "getdeployedLaunchBoxes",
      "outputs": [
        {
          "internalType": "address[]",
          "name": "",
          "type": "address[]"
        }
      ],
      "stateMutability": "view",
      "type": "function"
    },
    {
      "inputs": [
        {
          "internalType": "address",
          "name": "creator",
          "type": "address"
        }
      ],
      "name": "getdeployedLaunchBoxesLen",
      "outputs": [
        {
          "internalType": "uint256",
          "name": "",
          "type": "uint256"
        }
      ],
      "stateMutability": "view",
      "type": "function"
    },
    {
      "inputs": [
        {
          "internalType": "string",
          "name": "name",
          "type": "string"
        },
        {
          "internalType": "string",
          "name": "symbol",
          "type": "string"
        },
        {
          "internalType": "uint256",
          "name": "supply",
          "type": "uint256"
        }
      ],
      "name": "newLaunchBox",
      "outputs": [
        {
          "internalType": "address",
          "name": "",
          "type": "address"
        }
      ],
      "stateMutability": "nonpayable",
      "type": "function"
    }
  ],
  "bytecode": "0x608060405234801561001057600080fd5b50612bcc806100206000396000f3fe60806040523480156200001157600080fd5b50600436106200006a5760003560e01c806330543a75146200006f5780635c60a77414620000a55780638e0a029c14620000db5780639f886f261462000111578063befbd3c31462000147578063bf1fea5d146200017d575b600080fd5b6200008d6004803603810190620000879190620005fc565b620001b3565b6040516200009c919062000649565b60405180910390f35b620000c36004803603810190620000bd9190620007f9565b620001fe565b604051620000d29190620008a4565b60405180910390f35b620000f96004803603810190620000f39190620007f9565b6200038d565b6040516200010891906200094a565b60405180910390f35b6200012f600480360381019062000129919062000a22565b6200040c565b6040516200013e9190620008a4565b60405180910390f35b6200016560048036038101906200015f9190620005fc565b62000458565b60405162000174919062000b56565b60405180910390f35b6200019b600480360381019062000195919062000b7a565b62000526565b604051620001aa9190620008a4565b60405180910390f35b60008060008373ffffffffffffffffffffffffffffffffffffffff1673ffffffffffffffffffffffffffffffffffffffff168152602001908152602001600020805490509050919050565b6000806000803373ffffffffffffffffffffffffffffffffffffffff1673ffffffffffffffffffffffffffffffffffffffff1681526020019081526020016000208054905060001b858585604051620002579062000575565b620002659392919062000c1e565b8190604051809103906000f590508015801562000286573d6000803e3d6000fd5b5090506000803373ffffffffffffffffffffffffffffffffffffffff1673ffffffffffffffffffffffffffffffffffffffff168152602001908152602001600020819080600181540180825580915050600190039060005260206000200160009091909190916101000a81548173ffffffffffffffffffffffffffffffffffffffff021916908373ffffffffffffffffffffffffffffffffffffffff1602179055508073ffffffffffffffffffffffffffffffffffffffff163373ffffffffffffffffffffffffffffffffffffffff167f2fbefb62881629e4b259d3071b1bcfa5126011134ea8762f4fd36cf1046bfdd860405160405180910390a3809150509392505050565b6060600060405180602001620003a39062000575565b6020820181038252601f19601f82011660405250905080858585604051602001620003d19392919062000c1e565b604051602081830303815290604052604051602001620003f392919062000cab565b6040516020818303038152906040529150509392505050565b60008060ff60f81b3084868051906020012060405160200162000433949392919062000dc8565b6040516020818303038152906040528051906020012090508060001c91505092915050565b60606000808373ffffffffffffffffffffffffffffffffffffffff1673ffffffffffffffffffffffffffffffffffffffff1681526020019081526020016000208054806020026020016040519081016040528092919081815260200182805480156200051a57602002820191906000526020600020905b8160009054906101000a900473ffffffffffffffffffffffffffffffffffffffff1673ffffffffffffffffffffffffffffffffffffffff1681526020019060010190808311620004cf575b50505050509050919050565b600060205281600052604060002081815481106200054357600080fd5b906000526020600020016000915091509054906101000a900473ffffffffffffffffffffffffffffffffffffffff1681565b611d788062000e1f83390190565b6000604051905090565b600080fd5b600080fd5b600073ffffffffffffffffffffffffffffffffffffffff82169050919050565b6000620005c48262000597565b9050919050565b620005d681620005b7565b8114620005e257600080fd5b50565b600081359050620005f681620005cb565b92915050565b6000602082840312156200061557620006146200058d565b5b60006200062584828501620005e5565b91505092915050565b6000819050919050565b62000643816200062e565b82525050565b600060208201905062000660600083018462000638565b92915050565b600080fd5b600080fd5b6000601f19601f8301169050919050565b7f4e487b7100000000000000000000000000000000000000000000000000000000600052604160045260246000fd5b620006bb8262000670565b810181811067ffffffffffffffff82111715620006dd57620006dc62000681565b5b80604052505050565b6000620006f262000583565b9050620007008282620006b0565b919050565b600067ffffffffffffffff82111562000723576200072262000681565b5b6200072e8262000670565b9050602081019050919050565b82818337600083830152505050565b6000620007616200075b8462000705565b620006e6565b90508281526020810184848401111562000780576200077f6200066b565b5b6200078d8482856200073b565b509392505050565b600082601f830112620007ad57620007ac62000666565b5b8135620007bf8482602086016200074a565b91505092915050565b620007d3816200062e565b8114620007df57600080fd5b50565b600081359050620007f381620007c8565b92915050565b6000806000606084860312156200081557620008146200058d565b5b600084013567ffffffffffffffff81111562000836576200083562000592565b5b620008448682870162000795565b935050602084013567ffffffffffffffff81111562000868576200086762000592565b5b620008768682870162000795565b92505060406200088986828701620007e2565b9150509250925092565b6200089e81620005b7565b82525050565b6000602082019050620008bb600083018462000893565b92915050565b600081519050919050565b600082825260208201905092915050565b60005b83811015620008fd578082015181840152602081019050620008e0565b60008484015250505050565b60006200091682620008c1565b620009228185620008cc565b935062000934818560208601620008dd565b6200093f8162000670565b840191505092915050565b6000602082019050818103600083015262000966818462000909565b905092915050565b600067ffffffffffffffff8211156200098c576200098b62000681565b5b620009978262000670565b9050602081019050919050565b6000620009bb620009b5846200096e565b620006e6565b905082815260208101848484011115620009da57620009d96200066b565b5b620009e78482856200073b565b509392505050565b600082601f83011262000a075762000a0662000666565b5b813562000a19848260208601620009a4565b91505092915050565b6000806040838503121562000a3c5762000a3b6200058d565b5b600083013567ffffffffffffffff81111562000a5d5762000a5c62000592565b5b62000a6b85828601620009ef565b925050602062000a7e85828601620007e2565b9150509250929050565b600081519050919050565b600082825260208201905092915050565b6000819050602082019050919050565b62000abf81620005b7565b82525050565b600062000ad3838362000ab4565b60208301905092915050565b6000602082019050919050565b600062000af98262000a88565b62000b05818562000a93565b935062000b128362000aa4565b8060005b8381101562000b4957815162000b2d888262000ac5565b975062000b3a8362000adf565b92505060018101905062000b16565b5085935050505092915050565b6000602082019050818103600083015262000b72818462000aec565b905092915050565b6000806040838503121562000b945762000b936200058d565b5b600062000ba485828601620005e5565b925050602062000bb785828601620007e2565b9150509250929050565b600081519050919050565b600082825260208201905092915050565b600062000bea8262000bc1565b62000bf6818562000bcc565b935062000c08818560208601620008dd565b62000c138162000670565b840191505092915050565b6000606082019050818103600083015262000c3a818662000bdd565b9050818103602083015262000c50818562000bdd565b905062000c61604083018462000638565b949350505050565b600081905092915050565b600062000c8182620008c1565b62000c8d818562000c69565b935062000c9f818560208601620008dd565b80840191505092915050565b600062000cb9828562000c74565b915062000cc7828462000c74565b91508190509392505050565b60007fff0000000000000000000000000000000000000000000000000000000000000082169050919050565b6000819050919050565b62000d1e62000d188262000cd3565b62000cff565b82525050565b60008160601b9050919050565b600062000d3e8262000d24565b9050919050565b600062000d528262000d31565b9050919050565b62000d6e62000d6882620005b7565b62000d45565b82525050565b6000819050919050565b62000d9362000d8d826200062e565b62000d74565b82525050565b6000819050919050565b6000819050919050565b62000dc262000dbc8262000d99565b62000da3565b82525050565b600062000dd6828762000d09565b60018201915062000de8828662000d59565b60148201915062000dfa828562000d7e565b60208201915062000e0c828462000dad565b6020820191508190509594505050505056fe60806040523480156200001157600080fd5b5060405162001d7838038062001d78833981810160405281019062000037919062000653565b33838381600390816200004b91906200092e565b5080600490816200005d91906200092e565b505050600073ffffffffffffffffffffffffffffffffffffffff168173ffffffffffffffffffffffffffffffffffffffff1603620000d55760006040517f1e4fbdf7000000000000000000000000000000000000000000000000000000008152600401620000cc919062000a5a565b60405180910390fd5b620000e6816200010260201b60201c565b50620000f93082620001c860201b60201c565b50505062000b4c565b6000600560009054906101000a900473ffffffffffffffffffffffffffffffffffffffff16905081600560006101000a81548173ffffffffffffffffffffffffffffffffffffffff021916908373ffffffffffffffffffffffffffffffffffffffff1602179055508173ffffffffffffffffffffffffffffffffffffffff168173ffffffffffffffffffffffffffffffffffffffff167f8be0079c531659141344cd1fd0a4f28419497f9722a3daafe3b4186f6b6457e060405160405180910390a35050565b600073ffffffffffffffffffffffffffffffffffffffff168273ffffffffffffffffffffffffffffffffffffffff16036200023d5760006040517fec442f0500000000000000000000000000000000000000000000000000000000815260040162000234919062000a5a565b60405180910390fd5b62000251600083836200025560201b60201c565b5050565b600073ffffffffffffffffffffffffffffffffffffffff168373ffffffffffffffffffffffffffffffffffffffff1603620002ab5780600260008282546200029e919062000aa6565b9250508190555062000381565b60008060008573ffffffffffffffffffffffffffffffffffffffff1673ffffffffffffffffffffffffffffffffffffffff168152602001908152602001600020549050818110156200033a578381836040517fe450d38c000000000000000000000000000000000000000000000000000000008152600401620003319392919062000af2565b60405180910390fd5b8181036000808673ffffffffffffffffffffffffffffffffffffffff1673ffffffffffffffffffffffffffffffffffffffff16815260200190815260200160002081905550505b600073ffffffffffffffffffffffffffffffffffffffff168273ffffffffffffffffffffffffffffffffffffffff1603620003cc578060026000828254039250508190555062000419565b806000808473ffffffffffffffffffffffffffffffffffffffff1673ffffffffffffffffffffffffffffffffffffffff168152602001908152602001600020600082825401925050819055505b8173ffffffffffffffffffffffffffffffffffffffff168373ffffffffffffffffffffffffffffffffffffffff167fddf252ad1be2c89b69c2b068fc378daa952ba7f163c4a11628f55a4df523b3ef8360405162000478919062000b2f565b60405180910390a3505050565b6000604051905090565b600080fd5b600080fd5b600080fd5b600080fd5b6000601f19601f8301169050919050565b7f4e487b7100000000000000000000000000000000000000000000000000000000600052604160045260246000fd5b620004ee82620004a3565b810181811067ffffffffffffffff8211171562000510576200050f620004b4565b5b80604052505050565b60006200052562000485565b9050620005338282620004e3565b919050565b600067ffffffffffffffff821115620005565762000555620004b4565b5b6200056182620004a3565b9050602081019050919050565b60005b838110156200058e57808201518184015260208101905062000571565b60008484015250505050565b6000620005b1620005ab8462000538565b62000519565b905082815260208101848484011115620005d057620005cf6200049e565b5b620005dd8482856200056e565b509392505050565b600082601f830112620005fd57620005fc62000499565b5b81516200060f8482602086016200059a565b91505092915050565b6000819050919050565b6200062d8162000618565b81146200063957600080fd5b50565b6000815190506200064d8162000622565b92915050565b6000806000606084860312156200066f576200066e6200048f565b5b600084015167ffffffffffffffff81111562000690576200068f62000494565b5b6200069e86828701620005e5565b935050602084015167ffffffffffffffff811115620006c257620006c162000494565b5b620006d086828701620005e5565b9250506040620006e3868287016200063c565b9150509250925092565b600081519050919050565b7f4e487b7100000000000000000000000000000000000000000000000000000000600052602260045260246000fd5b600060028204905060018216806200074057607f821691505b602082108103620007565762000755620006f8565b5b50919050565b60008190508160005260206000209050919050565b60006020601f8301049050919050565b600082821b905092915050565b600060088302620007c07fffffffffffffffffffffffffffffffffffffffffffffffffffffffffffffffff8262000781565b620007cc868362000781565b95508019841693508086168417925050509392505050565b6000819050919050565b60006200080f62000809620008038462000618565b620007e4565b62000618565b9050919050565b6000819050919050565b6200082b83620007ee565b620008436200083a8262000816565b8484546200078e565b825550505050565b600090565b6200085a6200084b565b6200086781848462000820565b505050565b5b818110156200088f576200088360008262000850565b6001810190506200086d565b5050565b601f821115620008de57620008a8816200075c565b620008b38462000771565b81016020851015620008c3578190505b620008db620008d28562000771565b8301826200086c565b50505b505050565b600082821c905092915050565b60006200090360001984600802620008e3565b1980831691505092915050565b60006200091e8383620008f0565b9150826002028217905092915050565b6200093982620006ed565b67ffffffffffffffff811115620009555762000954620004b4565b5b62000961825462000727565b6200096e82828562000893565b600060209050601f831160018114620009a6576000841562000991578287015190505b6200099d858262000910565b86555062000a0d565b601f198416620009b6866200075c565b60005b82811015620009e057848901518255600182019150602085019450602081019050620009b9565b8683101562000a005784890151620009fc601f891682620008f0565b8355505b6001600288020188555050505b505050505050565b600073ffffffffffffffffffffffffffffffffffffffff82169050919050565b600062000a428262000a15565b9050919050565b62000a548162000a35565b82525050565b600060208201905062000a71600083018462000a49565b92915050565b7f4e487b7100000000000000000000000000000000000000000000000000000000600052601160045260246000fd5b600062000ab38262000618565b915062000ac08362000618565b925082820190508082111562000adb5762000ada62000a77565b5b92915050565b62000aec8162000618565b82525050565b600060608201905062000b09600083018662000a49565b62000b18602083018562000ae1565b62000b27604083018462000ae1565b949350505050565b600060208201905062000b46600083018462000ae1565b92915050565b61121c8062000b5c6000396000f3fe608060405234801561001057600080fd5b50600436106100ea5760003560e01c8063715018a61161008c57806395d89b411161006657806395d89b4114610239578063a9059cbb14610257578063dd62ed3e14610287578063f2fde38b146102b7576100ea565b8063715018a6146101f557806379cc6790146101ff5780638da5cb5b1461021b576100ea565b806323b872dd116100c857806323b872dd1461015b578063313ce5671461018b57806342966c68146101a957806370a08231146101c5576100ea565b806306fdde03146100ef578063095ea7b31461010d57806318160ddd1461013d575b600080fd5b6100f76102d3565b6040516101049190610e43565b60405180910390f35b61012760048036038101906101229190610efe565b610365565b6040516101349190610f59565b60405180910390f35b610145610388565b6040516101529190610f83565b60405180910390f35b61017560048036038101906101709190610f9e565b610392565b6040516101829190610f59565b60405180910390f35b6101936103c1565b6040516101a0919061100d565b60405180910390f35b6101c360048036038101906101be9190611028565b6103ca565b005b6101df60048036038101906101da9190611055565b6103de565b6040516101ec9190610f83565b60405180910390f35b6101fd610426565b005b61021960048036038101906102149190610efe565b61043a565b005b61022361045a565b6040516102309190611091565b60405180910390f35b610241610484565b60405161024e9190610e43565b60405180910390f35b610271600480360381019061026c9190610efe565b610516565b60405161027e9190610f59565b60405180910390f35b6102a1600480360381019061029c91906110ac565b610539565b6040516102ae9190610f83565b60405180910390f35b6102d160048036038101906102cc9190611055565b6105c0565b005b6060600380546102e29061111b565b80601f016020809104026020016040519081016040528092919081815260200182805461030e9061111b565b801561035b5780601f106103305761010080835404028352916020019161035b565b820191906000526020600020905b81548152906001019060200180831161033e57829003601f168201915b5050505050905090565b600080610370610646565b905061037d81858561064e565b600191505092915050565b6000600254905090565b60008061039d610646565b90506103aa858285610660565b6103b58585856106f4565b60019150509392505050565b60006012905090565b6103db6103d5610646565b826107e8565b50565b60008060008373ffffffffffffffffffffffffffffffffffffffff1673ffffffffffffffffffffffffffffffffffffffff168152602001908152602001600020549050919050565b61042e61086a565b61043860006108f1565b565b61044c82610446610646565b83610660565b61045682826107e8565b5050565b6000600560009054906101000a900473ffffffffffffffffffffffffffffffffffffffff16905090565b6060600480546104939061111b565b80601f01602080910402602001604051908101604052809291908181526020018280546104bf9061111b565b801561050c5780601f106104e15761010080835404028352916020019161050c565b820191906000526020600020905b8154815290600101906020018083116104ef57829003601f168201915b5050505050905090565b600080610521610646565b905061052e8185856106f4565b600191505092915050565b6000600160008473ffffffffffffffffffffffffffffffffffffffff1673ffffffffffffffffffffffffffffffffffffffff16815260200190815260200160002060008373ffffffffffffffffffffffffffffffffffffffff1673ffffffffffffffffffffffffffffffffffffffff16815260200190815260200160002054905092915050565b6105c861086a565b600073ffffffffffffffffffffffffffffffffffffffff168173ffffffffffffffffffffffffffffffffffffffff160361063a5760006040517f1e4fbdf70000000000000000000000000000000000000000000000000000000081526004016106319190611091565b60405180910390fd5b610643816108f1565b50565b600033905090565b61065b83838360016109b7565b505050565b600061066c8484610539565b90507fffffffffffffffffffffffffffffffffffffffffffffffffffffffffffffffff81146106ee57818110156106de578281836040517ffb8f41b20000000000000000000000000000000000000000000000000000000081526004016106d59392919061114c565b60405180910390fd5b6106ed848484840360006109b7565b5b50505050565b600073ffffffffffffffffffffffffffffffffffffffff168373ffffffffffffffffffffffffffffffffffffffff16036107665760006040517f96c6fd1e00000000000000000000000000000000000000000000000000000000815260040161075d9190611091565b60405180910390fd5b600073ffffffffffffffffffffffffffffffffffffffff168273ffffffffffffffffffffffffffffffffffffffff16036107d85760006040517fec442f050000000000000000000000000000000000000000000000000000000081526004016107cf9190611091565b60405180910390fd5b6107e3838383610b8e565b505050565b600073ffffffffffffffffffffffffffffffffffffffff168273ffffffffffffffffffffffffffffffffffffffff160361085a5760006040517f96c6fd1e0000000000000000000000000000000000000000000000000000000081526004016108519190611091565b60405180910390fd5b61086682600083610b8e565b5050565b610872610646565b73ffffffffffffffffffffffffffffffffffffffff1661089061045a565b73ffffffffffffffffffffffffffffffffffffffff16146108ef576108b3610646565b6040517f118cdaa70000000000000000000000000000000000000000000000000000000081526004016108e69190611091565b60405180910390fd5b565b6000600560009054906101000a900473ffffffffffffffffffffffffffffffffffffffff16905081600560006101000a81548173ffffffffffffffffffffffffffffffffffffffff021916908373ffffffffffffffffffffffffffffffffffffffff1602179055508173ffffffffffffffffffffffffffffffffffffffff168173ffffffffffffffffffffffffffffffffffffffff167f8be0079c531659141344cd1fd0a4f28419497f9722a3daafe3b4186f6b6457e060405160405180910390a35050565b600073ffffffffffffffffffffffffffffffffffffffff168473ffffffffffffffffffffffffffffffffffffffff1603610a295760006040517fe602df05000000000000000000000000000000000000000000000000000000008152600401610a209190611091565b60405180910390fd5b600073ffffffffffffffffffffffffffffffffffffffff168373ffffffffffffffffffffffffffffffffffffffff1603610a9b5760006040517f94280d62000000000000000000000000000000000000000000000000000000008152600401610a929190611091565b60405180910390fd5b81600160008673ffffffffffffffffffffffffffffffffffffffff1673ffffffffffffffffffffffffffffffffffffffff16815260200190815260200160002060008573ffffffffffffffffffffffffffffffffffffffff1673ffffffffffffffffffffffffffffffffffffffff168152602001908152602001600020819055508015610b88578273ffffffffffffffffffffffffffffffffffffffff168473ffffffffffffffffffffffffffffffffffffffff167f8c5be1e5ebec7d5bd14f71427d1e84f3dd0314c0f7b2291e5b200ac8c7c3b92584604051610b7f9190610f83565b60405180910390a35b50505050565b600073ffffffffffffffffffffffffffffffffffffffff168373ffffffffffffffffffffffffffffffffffffffff1603610be0578060026000828254610bd491906111b2565b92505081905550610cb3565b60008060008573ffffffffffffffffffffffffffffffffffffffff1673ffffffffffffffffffffffffffffffffffffffff16815260200190815260200160002054905081811015610c6c578381836040517fe450d38c000000000000000000000000000000000000000000000000000000008152600401610c639392919061114c565b60405180910390fd5b8181036000808673ffffffffffffffffffffffffffffffffffffffff1673ffffffffffffffffffffffffffffffffffffffff16815260200190815260200160002081905550505b600073ffffffffffffffffffffffffffffffffffffffff168273ffffffffffffffffffffffffffffffffffffffff1603610cfc5780600260008282540392505081905550610d49565b806000808473ffffffffffffffffffffffffffffffffffffffff1673ffffffffffffffffffffffffffffffffffffffff168152602001908152602001600020600082825401925050819055505b8173ffffffffffffffffffffffffffffffffffffffff168373ffffffffffffffffffffffffffffffffffffffff167fddf252ad1be2c89b69c2b068fc378daa952ba7f163c4a11628f55a4df523b3ef83604051610da69190610f83565b60405180910390a3505050565b600081519050919050565b600082825260208201905092915050565b60005b83811015610ded578082015181840152602081019050610dd2565b60008484015250505050565b6000601f19601f8301169050919050565b6000610e1582610db3565b610e1f8185610dbe565b9350610e2f818560208601610dcf565b610e3881610df9565b840191505092915050565b60006020820190508181036000830152610e5d8184610e0a565b905092915050565b600080fd5b600073ffffffffffffffffffffffffffffffffffffffff82169050919050565b6000610e9582610e6a565b9050919050565b610ea581610e8a565b8114610eb057600080fd5b50565b600081359050610ec281610e9c565b92915050565b6000819050919050565b610edb81610ec8565b8114610ee657600080fd5b50565b600081359050610ef881610ed2565b92915050565b60008060408385031215610f1557610f14610e65565b5b6000610f2385828601610eb3565b9250506020610f3485828601610ee9565b9150509250929050565b60008115159050919050565b610f5381610f3e565b82525050565b6000602082019050610f6e6000830184610f4a565b92915050565b610f7d81610ec8565b82525050565b6000602082019050610f986000830184610f74565b92915050565b600080600060608486031215610fb757610fb6610e65565b5b6000610fc586828701610eb3565b9350506020610fd686828701610eb3565b9250506040610fe786828701610ee9565b9150509250925092565b600060ff82169050919050565b61100781610ff1565b82525050565b60006020820190506110226000830184610ffe565b92915050565b60006020828403121561103e5761103d610e65565b5b600061104c84828501610ee9565b91505092915050565b60006020828403121561106b5761106a610e65565b5b600061107984828501610eb3565b91505092915050565b61108b81610e8a565b82525050565b60006020820190506110a66000830184611082565b92915050565b600080604083850312156110c3576110c2610e65565b5b60006110d185828601610eb3565b92505060206110e285828601610eb3565b9150509250929050565b7f4e487b7100000000000000000000000000000000000000000000000000000000600052602260045260246000fd5b6000600282049050600182168061113357607f821691505b602082108103611146576111456110ec565b5b50919050565b60006060820190506111616000830186611082565b61116e6020830185610f74565b61117b6040830184610f74565b949350505050565b7f4e487b7100000000000000000000000000000000000000000000000000000000600052601160045260246000fd5b60006111bd82610ec8565b91506111c883610ec8565b92508282019050808211156111e0576111df611183565b5b9291505056fea2646970667358221220ea90ebc7a867da76a45569c06995b9ecb57fe9ea239531b0f7ca3a68d2e39d6b64736f6c63430008180033a26469706673582212209757fad3c54e635c93d0ffb10e1e438c24b584996e9ccc95120b2de2adf4629d64736f6c63430008180033",
  "linkReferences": {},
  "deployedLinkReferences": {}
}